:030000000209FAF8
:0C09FA00787FE4F6D8FD75811202080039
:1009E800C0F9A4B0999282F880907FBFDFEF070B1F
:0209F8000D0EE2
:1009BC00C37409950EFFE49400C313FEEF132401D6
:0409CC00FFE43EFE08
:1009D000E4FDEDC39FEE6480F87480985009E4FC58
:0709E0000CBCB4FC0D80EB20
:0109E70022ED
:10080000E4F508F509F50A750B05F50CF50DF50E7F
:10081000FBF50F751001FAF511F512D2A79009F248
:1008200093F580C2A7D2A69009E8E493F4F580C2BC
:10083000A6758901758CB8E4F58AD28C308DFD05DA
:1008400009E50970020508C28D758CB8E4F58AC304
:10085000E5099405E50894004030050DE50D7002AA
:10086000050CE50B25E0FFE50A33FEC3E50D9FE52A
:100870000C9E4011050EAE0AAF0B7C007D0A1209DA
:10088000558E0A8F0BE4F508F509850C11850D12BC
:10089000E4FBEBD3950E50A4750F00751001EBC36C
:1008A000950E501EE4FAC3E50E9BFFEAC39F50125B
:1008B000AE0FAF107C007D0A1209558E0F8F100A03
:1008C00080E4D2A6E4F580C2A6D2A77580FFC2A7B5
:1008D000D2A7EBFFC3E50E9FFFE49400FE74F22F56
:1008E000F58274093EF583E493F580C2A7D2A6E4AD
:1008F000F580C2A61209BCD2A6E50E14AC0FAD104D
:10090000AE11AF12B5031612096774E82FF58274A1
:10091000093EF583E493F44480F580801212096760
:1009200074E82FF58274093EF583E493F4F580C2F0
:10093000A6AC0FAD10AE11AF12120967AC0FAD101F
:10094000120955C3E5129FF512E5119EF511120922
:05095000BC0B0208923F
:10095500EF8DF0A4A8F0CF8CF0A428CE8DF0A42EB6
:02096500FE2270
:10096700BC000BBE0029EF8DF084FFADF022E4CC74
:10097700F875F008EF2FFFEE33FEEC33FCEE9DEC3D
:10098700984005FCEE9DFE0FD5F0E9E4CEFD22ED83
:10099700F8F5F0EE8420D21CFEADF075F008EF2FCD
:1009A700FFED33FD4007985006D5F0F222C398FDBE
:0509B7000FD5F0EA225B
:00000001FF
