:10006900FEFDFBF7EFDFBF7F065B4F666D7D077F08
:10004B00D3EF9400EE940040147D5A7C00ED1D70AC
:0D005B00011CED4C70F7EF1F70E61E80E3F6
:010068002275
:10000300E4FBEB90006993F580D2A7C2A7EB9000C5
:100013007193F580D2A6C2A67FF47E0112004B0B2A
:10002300BB08DFE4FBEB90006993F580D2A7C2A77E
:10003300EB90007193F580D2A6C2A67F027E0012D8
:08004300004B0BBB08DF80DB62
:0300000002007982
:0C007900787FE4F6D8FD758107020003D3
:00000001FF
