:10012A003F065B4F666D7D077F6F777C395E79711D
:09013A007638373E735C4000008A
:10010C00D3EF9400EE940040147D727C00ED1D70D2
:0D011C00011CED4C70F7EF1F70E61E80E334
:0101290022B3
:1000B10075B00FE5B0540F640F60297F057E001203
:1000C100010CE5B0540F640F601AE5B0540FFFEB5B
:1000D10044F0F5B0E5B054F0FBE5B054F0FEBEF0ED
:0400E100F8EB2FFF0A
:0100E50022F8
:100003001200B1EF1200E600957700817B006D7D51
:1000130000597E0090B7007CBB0068BD0054BE0051
:100023008BD70077DB0063DD004FDE0086E70072CD
:10003300EB005EED004AEE00A9F700A4FB009FFD74
:10004300009AFE000000B090012A805D90012B8091
:100053005890012C805390012D804E90012E8049A1
:1000630090012F8044900130803F900131803A907D
:10007300013280359001338030900134802B900120
:100083003580269001368021900137801C900138FD
:100093008017900139801290013A800D90013B80C6
:0E00A3000890013C800390013DE493F580221B
:10014300D2A7E4F580C2A7D2A690014093F580120E
:04015300000380FB2A
:03000000020157A3
:0C015700787FE4F6D8FD758107020143B3
:1000E600D083D082F8E4937012740193700DA3A3A9
:1000F60093F8740193F5828883E4737402936860BD
:06010600EFA3A3A380DFBC
:00000001FF
