:0300000002089162
:0C089100787FE4F6D8FD75810B020800AA
:10080000750800750900D3E5099408E508940050BF
:1008100037AF0974FFA807088002C313D8FCFFEFA5
:10082000F4F590750A00750B00C3E50B9430E50AEA
:100830009475500A050BE50B7002050A80EB05095B
:10084000E5097002050880BE750800750901C3E559
:10085000099408E508940050A7AF0974FFA8070899
:100860008002C333D8FCF590750A00750B00C3E510
:100870000B9430E50A9475500A050BE50B700205E0
:100880000A80EB0509E5097002050880C10208002D
:010890002245
:00000001FF
