:03000000020AC72A
:0C0AC700787FE4F6D8FD758116020B0E56
:100B5300C0F9A4B0999282F880907FBFDFEFF7FBD2
:020B6300FDFE95
:0A0B65000808000000000000000076
:10080000E4F510F511F515F514F513F512F516D2FA
:10081000A7900B5D93F580C2A7D2A6900B53E493EB
:10082000F4F580C2A6758901758CFC758A67D28C37
:10083000308DFD0511E51170020510C28D758CFC1F
:10084000758A67C3E51194E8E51094035003020923
:100850005CE4F510F511E5152401F515E43514F502
:1008600014E43513F513E43512F512E47B0AFAF9B2
:10087000F8AF15AE14AD13AC12120A3574532BF544
:1008800082740B3AF583E493F4F508E47B0AFAF9F1
:10089000F8AF15AE14AD13AC12120A35E47B0AFAA8
:1008A000F9F8120A3574532BF582740B3AF583E488
:1008B00093F4F509E47B64FAF9F8AF15AE14AD13BF
:1008C000AC12120A35E47B0AFAF9F8120A357453AD
:1008D0002BF582740B3AF583E493F4F50AE47BE894
:1008E0007A03F9F8AF15AE14AD13AC12120A35E461
:1008F0007B0AFAF9F8120A3574532BF582740B3A15
:10090000F583E493F4F50BE47B107A27F9F8AF153F
:10091000AE14AD13AC12120A35E47B0AFAF9F812E0
:100920000A3574532BF582740B3AF583E493F4F58E
:100930000C7BA07A8679017800AF15AE14AD13ACAC
:1009400012120A35E47B0AFAF9F8120A3574532BAD
:10095000F582740B3AF583E493F4F50DD2A7758014
:10096000FFC2A7E5167011D2A7900B5D93F580C268
:10097000A7D2A6850880805AE516B40112D2A790A6
:100980000B5EE493F580C2A7D2A68509808043E57B
:1009900016B40212D2A7900B5FE493F580C2A7D2DF
:1009A000A6850A80802CE516B40312D2A7900B60AE
:1009B000E493F580C2A7D2A6850B808015E516B416
:1009C0000417D2A7900B61E493F580C2A7D2A68545
:1009D0000C80C2A60516020830E516640560030205
:1009E0000830D2A7900B6293F580C2A7D2A6850DDE
:0909F00080C2A6E4F516020830ED
:100AD300020800E493A3F8E493A34003F68001F231
:100AE30008DFF48029E493A3F85407240CC8C33324
:100AF300C4540F4420C8834004F456800146F6DFF3
:100B0300E4800B0102040810204080900B65E47E12
:100B1300019360BCA3FF543F30E509541FFEE493E7
:100B2300A360010ECF54C025E060A840B8E493A3AE
:100B3300FAE493A3F8E493A3C8C582C8CAC583CAD9
:100B4300F0A3C8C582C8CAC583CADFE9DEE780BE91
:010B6F000085
:1009F90075F008758200EF2FFFEE33FECD33CDCCB5
:100A090033CCC58233C5829BED9AEC99E582984037
:100A19000CF582EE9BFEED9AFDEC99FC0FD5F0D614
:100A2900E4CEFBE4CDFAE4CCF9A88222B800C1B93E
:100A39000059BA002DEC8BF084CFCECDFCE5F0CB7C
:100A4900F97818EF2FFFEE33FEED33FDEC33FCEBB5
:100A590033FB10D703994004EB99FB0FD8E5E4F970
:100A6900FA227818EF2FFFEE33FEED33FDEC33FC5D
:100A7900C933C910D7059BE99A4007EC9BFCE99A51
:100A8900F90FD8E0E4C9FAE4CCFB2275F010EF2F96
:100A9900FFEE33FEED33FDCC33CCC833C810D70796
:100AA9009BEC9AE899400AED9BFDEC9AFCE899F8D1
:0E0AB9000FD5F0DAE4CDFBE4CCFAE4C8F92264
:00000001FF
